###############################################################################
#
# IAR ELF Linker V7.80.3.12102/W32 for ARM                03/Mar/2017  15:42:14
# Copyright 2007-2016 IAR Systems AB.
#
#    Output file  =  
#        C:\Users\TANKX\Desktop\new_ver2\CE4053-ce4053_source_code-c5208c241304\ce4053\Micrium\Software\EvalBoards\TI\LM3S9B92-EVALBOT\IAR\uCOS-III-CE4053_PG\Debug\Exe\uCOS-III-Ex4.out
#    Map file     =  
#        C:\Users\TANKX\Desktop\new_ver2\CE4053-ce4053_source_code-c5208c241304\ce4053\Micrium\Software\EvalBoards\TI\LM3S9B92-EVALBOT\IAR\uCOS-III-CE4053_PG\Debug\List\uCOS-III-Ex4.map
#    Command line =  
#        C:\Users\TANKX\Desktop\new_ver2\CE4053-ce4053_source_code-c5208c241304\ce4053\Micrium\Software\EvalBoards\TI\LM3S9B92-EVALBOT\IAR\uCOS-III-CE4053_PG\Debug\Obj\adc.o
#        C:\Users\TANKX\Desktop\new_ver2\CE4053-ce4053_source_code-c5208c241304\ce4053\Micrium\Software\EvalBoards\TI\LM3S9B92-EVALBOT\IAR\uCOS-III-CE4053_PG\Debug\Obj\app.o
#        C:\Users\TANKX\Desktop\new_ver2\CE4053-ce4053_source_code-c5208c241304\ce4053\Micrium\Software\EvalBoards\TI\LM3S9B92-EVALBOT\IAR\uCOS-III-CE4053_PG\Debug\Obj\app_vect.o
#        C:\Users\TANKX\Desktop\new_ver2\CE4053-ce4053_source_code-c5208c241304\ce4053\Micrium\Software\EvalBoards\TI\LM3S9B92-EVALBOT\IAR\uCOS-III-CE4053_PG\Debug\Obj\bsp.o
#        C:\Users\TANKX\Desktop\new_ver2\CE4053-ce4053_source_code-c5208c241304\ce4053\Micrium\Software\EvalBoards\TI\LM3S9B92-EVALBOT\IAR\uCOS-III-CE4053_PG\Debug\Obj\bsp_dac.o
#        C:\Users\TANKX\Desktop\new_ver2\CE4053-ce4053_source_code-c5208c241304\ce4053\Micrium\Software\EvalBoards\TI\LM3S9B92-EVALBOT\IAR\uCOS-III-CE4053_PG\Debug\Obj\bsp_display.o
#        C:\Users\TANKX\Desktop\new_ver2\CE4053-ce4053_source_code-c5208c241304\ce4053\Micrium\Software\EvalBoards\TI\LM3S9B92-EVALBOT\IAR\uCOS-III-CE4053_PG\Debug\Obj\bsp_int.o
#        C:\Users\TANKX\Desktop\new_ver2\CE4053-ce4053_source_code-c5208c241304\ce4053\Micrium\Software\EvalBoards\TI\LM3S9B92-EVALBOT\IAR\uCOS-III-CE4053_PG\Debug\Obj\bsp_io.o
#        C:\Users\TANKX\Desktop\new_ver2\CE4053-ce4053_source_code-c5208c241304\ce4053\Micrium\Software\EvalBoards\TI\LM3S9B92-EVALBOT\IAR\uCOS-III-CE4053_PG\Debug\Obj\bsp_motor.o
#        C:\Users\TANKX\Desktop\new_ver2\CE4053-ce4053_source_code-c5208c241304\ce4053\Micrium\Software\EvalBoards\TI\LM3S9B92-EVALBOT\IAR\uCOS-III-CE4053_PG\Debug\Obj\bsp_sensors.o
#        C:\Users\TANKX\Desktop\new_ver2\CE4053-ce4053_source_code-c5208c241304\ce4053\Micrium\Software\EvalBoards\TI\LM3S9B92-EVALBOT\IAR\uCOS-III-CE4053_PG\Debug\Obj\can.o
#        C:\Users\TANKX\Desktop\new_ver2\CE4053-ce4053_source_code-c5208c241304\ce4053\Micrium\Software\EvalBoards\TI\LM3S9B92-EVALBOT\IAR\uCOS-III-CE4053_PG\Debug\Obj\comp.o
#        C:\Users\TANKX\Desktop\new_ver2\CE4053-ce4053_source_code-c5208c241304\ce4053\Micrium\Software\EvalBoards\TI\LM3S9B92-EVALBOT\IAR\uCOS-III-CE4053_PG\Debug\Obj\cpu_.o
#        C:\Users\TANKX\Desktop\new_ver2\CE4053-ce4053_source_code-c5208c241304\ce4053\Micrium\Software\EvalBoards\TI\LM3S9B92-EVALBOT\IAR\uCOS-III-CE4053_PG\Debug\Obj\cpu_a.o
#        C:\Users\TANKX\Desktop\new_ver2\CE4053-ce4053_source_code-c5208c241304\ce4053\Micrium\Software\EvalBoards\TI\LM3S9B92-EVALBOT\IAR\uCOS-III-CE4053_PG\Debug\Obj\cpu_bsp.o
#        C:\Users\TANKX\Desktop\new_ver2\CE4053-ce4053_source_code-c5208c241304\ce4053\Micrium\Software\EvalBoards\TI\LM3S9B92-EVALBOT\IAR\uCOS-III-CE4053_PG\Debug\Obj\cpu_c.o
#        C:\Users\TANKX\Desktop\new_ver2\CE4053-ce4053_source_code-c5208c241304\ce4053\Micrium\Software\EvalBoards\TI\LM3S9B92-EVALBOT\IAR\uCOS-III-CE4053_PG\Debug\Obj\cpu_core.o
#        C:\Users\TANKX\Desktop\new_ver2\CE4053-ce4053_source_code-c5208c241304\ce4053\Micrium\Software\EvalBoards\TI\LM3S9B92-EVALBOT\IAR\uCOS-III-CE4053_PG\Debug\Obj\epi.o
#        C:\Users\TANKX\Desktop\new_ver2\CE4053-ce4053_source_code-c5208c241304\ce4053\Micrium\Software\EvalBoards\TI\LM3S9B92-EVALBOT\IAR\uCOS-III-CE4053_PG\Debug\Obj\ethernet.o
#        C:\Users\TANKX\Desktop\new_ver2\CE4053-ce4053_source_code-c5208c241304\ce4053\Micrium\Software\EvalBoards\TI\LM3S9B92-EVALBOT\IAR\uCOS-III-CE4053_PG\Debug\Obj\fatfs.o
#        C:\Users\TANKX\Desktop\new_ver2\CE4053-ce4053_source_code-c5208c241304\ce4053\Micrium\Software\EvalBoards\TI\LM3S9B92-EVALBOT\IAR\uCOS-III-CE4053_PG\Debug\Obj\flash.o
#        C:\Users\TANKX\Desktop\new_ver2\CE4053-ce4053_source_code-c5208c241304\ce4053\Micrium\Software\EvalBoards\TI\LM3S9B92-EVALBOT\IAR\uCOS-III-CE4053_PG\Debug\Obj\gpio.o
#        C:\Users\TANKX\Desktop\new_ver2\CE4053-ce4053_source_code-c5208c241304\ce4053\Micrium\Software\EvalBoards\TI\LM3S9B92-EVALBOT\IAR\uCOS-III-CE4053_PG\Debug\Obj\hibernate.o
#        C:\Users\TANKX\Desktop\new_ver2\CE4053-ce4053_source_code-c5208c241304\ce4053\Micrium\Software\EvalBoards\TI\LM3S9B92-EVALBOT\IAR\uCOS-III-CE4053_PG\Debug\Obj\i2c.o
#        C:\Users\TANKX\Desktop\new_ver2\CE4053-ce4053_source_code-c5208c241304\ce4053\Micrium\Software\EvalBoards\TI\LM3S9B92-EVALBOT\IAR\uCOS-III-CE4053_PG\Debug\Obj\i2s.o
#        C:\Users\TANKX\Desktop\new_ver2\CE4053-ce4053_source_code-c5208c241304\ce4053\Micrium\Software\EvalBoards\TI\LM3S9B92-EVALBOT\IAR\uCOS-III-CE4053_PG\Debug\Obj\interrupt.o
#        C:\Users\TANKX\Desktop\new_ver2\CE4053-ce4053_source_code-c5208c241304\ce4053\Micrium\Software\EvalBoards\TI\LM3S9B92-EVALBOT\IAR\uCOS-III-CE4053_PG\Debug\Obj\lib_ascii.o
#        C:\Users\TANKX\Desktop\new_ver2\CE4053-ce4053_source_code-c5208c241304\ce4053\Micrium\Software\EvalBoards\TI\LM3S9B92-EVALBOT\IAR\uCOS-III-CE4053_PG\Debug\Obj\lib_math.o
#        C:\Users\TANKX\Desktop\new_ver2\CE4053-ce4053_source_code-c5208c241304\ce4053\Micrium\Software\EvalBoards\TI\LM3S9B92-EVALBOT\IAR\uCOS-III-CE4053_PG\Debug\Obj\lib_mem.o
#        C:\Users\TANKX\Desktop\new_ver2\CE4053-ce4053_source_code-c5208c241304\ce4053\Micrium\Software\EvalBoards\TI\LM3S9B92-EVALBOT\IAR\uCOS-III-CE4053_PG\Debug\Obj\lib_str.o
#        C:\Users\TANKX\Desktop\new_ver2\CE4053-ce4053_source_code-c5208c241304\ce4053\Micrium\Software\EvalBoards\TI\LM3S9B92-EVALBOT\IAR\uCOS-III-CE4053_PG\Debug\Obj\microsd.o
#        C:\Users\TANKX\Desktop\new_ver2\CE4053-ce4053_source_code-c5208c241304\ce4053\Micrium\Software\EvalBoards\TI\LM3S9B92-EVALBOT\IAR\uCOS-III-CE4053_PG\Debug\Obj\mpu.o
#        C:\Users\TANKX\Desktop\new_ver2\CE4053-ce4053_source_code-c5208c241304\ce4053\Micrium\Software\EvalBoards\TI\LM3S9B92-EVALBOT\IAR\uCOS-III-CE4053_PG\Debug\Obj\os_app_hooks.o
#        C:\Users\TANKX\Desktop\new_ver2\CE4053-ce4053_source_code-c5208c241304\ce4053\Micrium\Software\EvalBoards\TI\LM3S9B92-EVALBOT\IAR\uCOS-III-CE4053_PG\Debug\Obj\os_cfg_app.o
#        C:\Users\TANKX\Desktop\new_ver2\CE4053-ce4053_source_code-c5208c241304\ce4053\Micrium\Software\EvalBoards\TI\LM3S9B92-EVALBOT\IAR\uCOS-III-CE4053_PG\Debug\Obj\os_core.o
#        C:\Users\TANKX\Desktop\new_ver2\CE4053-ce4053_source_code-c5208c241304\ce4053\Micrium\Software\EvalBoards\TI\LM3S9B92-EVALBOT\IAR\uCOS-III-CE4053_PG\Debug\Obj\os_cpu_a.o
#        C:\Users\TANKX\Desktop\new_ver2\CE4053-ce4053_source_code-c5208c241304\ce4053\Micrium\Software\EvalBoards\TI\LM3S9B92-EVALBOT\IAR\uCOS-III-CE4053_PG\Debug\Obj\os_cpu_c.o
#        C:\Users\TANKX\Desktop\new_ver2\CE4053-ce4053_source_code-c5208c241304\ce4053\Micrium\Software\EvalBoards\TI\LM3S9B92-EVALBOT\IAR\uCOS-III-CE4053_PG\Debug\Obj\os_dbg.o
#        C:\Users\TANKX\Desktop\new_ver2\CE4053-ce4053_source_code-c5208c241304\ce4053\Micrium\Software\EvalBoards\TI\LM3S9B92-EVALBOT\IAR\uCOS-III-CE4053_PG\Debug\Obj\os_flag.o
#        C:\Users\TANKX\Desktop\new_ver2\CE4053-ce4053_source_code-c5208c241304\ce4053\Micrium\Software\EvalBoards\TI\LM3S9B92-EVALBOT\IAR\uCOS-III-CE4053_PG\Debug\Obj\os_int.o
#        C:\Users\TANKX\Desktop\new_ver2\CE4053-ce4053_source_code-c5208c241304\ce4053\Micrium\Software\EvalBoards\TI\LM3S9B92-EVALBOT\IAR\uCOS-III-CE4053_PG\Debug\Obj\os_mem.o
#        C:\Users\TANKX\Desktop\new_ver2\CE4053-ce4053_source_code-c5208c241304\ce4053\Micrium\Software\EvalBoards\TI\LM3S9B92-EVALBOT\IAR\uCOS-III-CE4053_PG\Debug\Obj\os_msg.o
#        C:\Users\TANKX\Desktop\new_ver2\CE4053-ce4053_source_code-c5208c241304\ce4053\Micrium\Software\EvalBoards\TI\LM3S9B92-EVALBOT\IAR\uCOS-III-CE4053_PG\Debug\Obj\os_mutex.o
#        C:\Users\TANKX\Desktop\new_ver2\CE4053-ce4053_source_code-c5208c241304\ce4053\Micrium\Software\EvalBoards\TI\LM3S9B92-EVALBOT\IAR\uCOS-III-CE4053_PG\Debug\Obj\os_pend_multi.o
#        C:\Users\TANKX\Desktop\new_ver2\CE4053-ce4053_source_code-c5208c241304\ce4053\Micrium\Software\EvalBoards\TI\LM3S9B92-EVALBOT\IAR\uCOS-III-CE4053_PG\Debug\Obj\os_prio.o
#        C:\Users\TANKX\Desktop\new_ver2\CE4053-ce4053_source_code-c5208c241304\ce4053\Micrium\Software\EvalBoards\TI\LM3S9B92-EVALBOT\IAR\uCOS-III-CE4053_PG\Debug\Obj\os_q.o
#        C:\Users\TANKX\Desktop\new_ver2\CE4053-ce4053_source_code-c5208c241304\ce4053\Micrium\Software\EvalBoards\TI\LM3S9B92-EVALBOT\IAR\uCOS-III-CE4053_PG\Debug\Obj\os_scheduler.o
#        C:\Users\TANKX\Desktop\new_ver2\CE4053-ce4053_source_code-c5208c241304\ce4053\Micrium\Software\EvalBoards\TI\LM3S9B92-EVALBOT\IAR\uCOS-III-CE4053_PG\Debug\Obj\os_sem.o
#        C:\Users\TANKX\Desktop\new_ver2\CE4053-ce4053_source_code-c5208c241304\ce4053\Micrium\Software\EvalBoards\TI\LM3S9B92-EVALBOT\IAR\uCOS-III-CE4053_PG\Debug\Obj\os_stat.o
#        C:\Users\TANKX\Desktop\new_ver2\CE4053-ce4053_source_code-c5208c241304\ce4053\Micrium\Software\EvalBoards\TI\LM3S9B92-EVALBOT\IAR\uCOS-III-CE4053_PG\Debug\Obj\os_task.o
#        C:\Users\TANKX\Desktop\new_ver2\CE4053-ce4053_source_code-c5208c241304\ce4053\Micrium\Software\EvalBoards\TI\LM3S9B92-EVALBOT\IAR\uCOS-III-CE4053_PG\Debug\Obj\os_tick.o
#        C:\Users\TANKX\Desktop\new_ver2\CE4053-ce4053_source_code-c5208c241304\ce4053\Micrium\Software\EvalBoards\TI\LM3S9B92-EVALBOT\IAR\uCOS-III-CE4053_PG\Debug\Obj\os_time.o
#        C:\Users\TANKX\Desktop\new_ver2\CE4053-ce4053_source_code-c5208c241304\ce4053\Micrium\Software\EvalBoards\TI\LM3S9B92-EVALBOT\IAR\uCOS-III-CE4053_PG\Debug\Obj\os_tmr.o
#        C:\Users\TANKX\Desktop\new_ver2\CE4053-ce4053_source_code-c5208c241304\ce4053\Micrium\Software\EvalBoards\TI\LM3S9B92-EVALBOT\IAR\uCOS-III-CE4053_PG\Debug\Obj\os_var.o
#        C:\Users\TANKX\Desktop\new_ver2\CE4053-ce4053_source_code-c5208c241304\ce4053\Micrium\Software\EvalBoards\TI\LM3S9B92-EVALBOT\IAR\uCOS-III-CE4053_PG\Debug\Obj\pwm.o
#        C:\Users\TANKX\Desktop\new_ver2\CE4053-ce4053_source_code-c5208c241304\ce4053\Micrium\Software\EvalBoards\TI\LM3S9B92-EVALBOT\IAR\uCOS-III-CE4053_PG\Debug\Obj\qei.o
#        C:\Users\TANKX\Desktop\new_ver2\CE4053-ce4053_source_code-c5208c241304\ce4053\Micrium\Software\EvalBoards\TI\LM3S9B92-EVALBOT\IAR\uCOS-III-CE4053_PG\Debug\Obj\ssi.o
#        C:\Users\TANKX\Desktop\new_ver2\CE4053-ce4053_source_code-c5208c241304\ce4053\Micrium\Software\EvalBoards\TI\LM3S9B92-EVALBOT\IAR\uCOS-III-CE4053_PG\Debug\Obj\sysctl.o
#        C:\Users\TANKX\Desktop\new_ver2\CE4053-ce4053_source_code-c5208c241304\ce4053\Micrium\Software\EvalBoards\TI\LM3S9B92-EVALBOT\IAR\uCOS-III-CE4053_PG\Debug\Obj\systick.o
#        C:\Users\TANKX\Desktop\new_ver2\CE4053-ce4053_source_code-c5208c241304\ce4053\Micrium\Software\EvalBoards\TI\LM3S9B92-EVALBOT\IAR\uCOS-III-CE4053_PG\Debug\Obj\timer.o
#        C:\Users\TANKX\Desktop\new_ver2\CE4053-ce4053_source_code-c5208c241304\ce4053\Micrium\Software\EvalBoards\TI\LM3S9B92-EVALBOT\IAR\uCOS-III-CE4053_PG\Debug\Obj\uart.o
#        C:\Users\TANKX\Desktop\new_ver2\CE4053-ce4053_source_code-c5208c241304\ce4053\Micrium\Software\EvalBoards\TI\LM3S9B92-EVALBOT\IAR\uCOS-III-CE4053_PG\Debug\Obj\udma.o
#        C:\Users\TANKX\Desktop\new_ver2\CE4053-ce4053_source_code-c5208c241304\ce4053\Micrium\Software\EvalBoards\TI\LM3S9B92-EVALBOT\IAR\uCOS-III-CE4053_PG\Debug\Obj\usb.o
#        C:\Users\TANKX\Desktop\new_ver2\CE4053-ce4053_source_code-c5208c241304\ce4053\Micrium\Software\EvalBoards\TI\LM3S9B92-EVALBOT\IAR\uCOS-III-CE4053_PG\Debug\Obj\watchdog.o
#        --redirect _Printf=_PrintfFull --redirect _Scanf=_ScanfFull -o
#        C:\Users\TANKX\Desktop\new_ver2\CE4053-ce4053_source_code-c5208c241304\ce4053\Micrium\Software\EvalBoards\TI\LM3S9B92-EVALBOT\IAR\uCOS-III-CE4053_PG\Debug\Exe\uCOS-III-Ex4.out
#        --map
#        C:\Users\TANKX\Desktop\new_ver2\CE4053-ce4053_source_code-c5208c241304\ce4053\Micrium\Software\EvalBoards\TI\LM3S9B92-EVALBOT\IAR\uCOS-III-CE4053_PG\Debug\List\uCOS-III-Ex4.map
#        --config
#        C:\Users\TANKX\Desktop\new_ver2\CE4053-ce4053_source_code-c5208c241304\ce4053\Micrium\Software\EvalBoards\TI\LM3S9B92-EVALBOT\IAR\uCOS-III-CE4053_PG\..\BSP\LM3S9B92_Flash.icf
#        --semihosting --entry __iar_program_start --vfe
#
###############################################################################

*******************************************************************************
*** RUNTIME MODEL ATTRIBUTES
***

CppFlavor                     = *
__Heap_Handler                = Basic
__SystemLibrary               = DLib
__dlib_dynamic_initialization = normal


*******************************************************************************
*** PLACEMENT SUMMARY
***

"A0":  place at start of [0x00000000-0x0003ffff] { ro section .intvec };
"P1":  place in [from 0x00000000 to 0x0003ffff] { ro };
"P2":  place in [from 0x00000000 to 0x0003ffff] { section wave_1 };
"P3":  place in [from 0x00000000 to 0x0003ffff] { section wave_2 };
"P4":  place in [from 0x00000000 to 0x0003ffff] { section wave_3 };
"P5":  place in [from 0x00000000 to 0x0003ffff] { section wave_4 };
"P6":  place in [from 0x00000000 to 0x0003ffff] { section wave_5 };
"P7":  place in [from 0x20000000 to 0x20017fff] { rw, block HEAP, block CSTACK };
initialize by copy { rw };

  Section             Kind        Address    Size  Object
  -------             ----        -------    ----  ------
"A0":                                       0x11c
  .intvec             const    0x00000000   0x11c  app_vect.o [1]
                             - 0x0000011c   0x11c

"P1-P6":                                   0x6e3e
  .text               ro code  0x0000011c  0x119a  xprintffull.o [3]
  .text               ro code  0x000012b6    0x20  xmbtowc.o [3]
  .rodata             const    0x000012d6     0x2  os_cfg_app.o [1]
  .text               ro code  0x000012d8    0x16  strchr.o [5]
  .rodata             const    0x000012ee     0x2  os_cfg_app.o [1]
  .text               ro code  0x000012f0    0x36  strlen.o [5]
  .rodata             const    0x00001326     0x2  os_cfg_app.o [1]
  .text               ro code  0x00001328    0x58  memchr.o [5]
  .text               ro code  0x00001380     0xa  xmbcurmax.o [3]
  .rodata             const    0x0000138a     0x2  os_dbg.o [1]
  .text               ro code  0x0000138c    0xb0  xxmemxmalloc.o [3]
  .text               ro code  0x0000143c    0x1a  xwctomb.o [3]
  .rodata             const    0x00001456     0x2  os_dbg.o [1]
  .text               ro code  0x00001458    0x76  ABImemcpy_unaligned.o [5]
  .rodata             const    0x000014ce     0x2  os_dbg.o [1]
  .text               ro code  0x000014d0    0x80  xxmemxfree.o [3]
  .text               ro code  0x00001550    0xee  I64DivMod.o [5]
  .text               ro code  0x0000163e    0x44  xdnorm.o [4]
  .rodata             const    0x00001682     0x2  os_dbg.o [1]
  .text               ro code  0x00001684    0x2e  DblCmpLe.o [4]
  .rodata             const    0x000016b2     0x2  os_dbg.o [1]
  .text               ro code  0x000016b4    0x2e  DblCmpGe.o [4]
  .rodata             const    0x000016e2     0x2  os_dbg.o [1]
  .text               ro code  0x000016e4   0x10c  xdscale.o [4]
  .text               ro code  0x000017f0    0x58  DblToI32.o [4]
  .text               ro code  0x00001848    0x30  I32ToDbl.o [4]
  .text               ro code  0x00001878   0x180  DblSub.o [4]
  .text               ro code  0x000019f8   0x1a2  DblMul.o [4]
  .rodata             const    0x00001b9a     0x2  os_dbg.o [1]
  .text               ro code  0x00001b9c   0x256  DblDiv.o [4]
  .rodata             const    0x00001df2     0x2  os_dbg.o [1]
  .text               ro code  0x00001df4    0x6c  localeconv.o [3]
  .text               ro code  0x00001e60     0xe  div.o [3]
  .rodata             const    0x00001e6e     0x2  os_dbg.o [1]
  .text               ro code  0x00001e70    0x14  setlocale.o [3]
  .text               ro code  0x00001e84    0x60  xencoding_sb.o [3]
  .text               ro code  0x00001ee4    0x2c  xgetmemchunk.o [3]
  .text               ro code  0x00001f10     0x2  I64DivZer.o [5]
  .rodata             const    0x00001f12     0x2  os_dbg.o [1]
  .text               ro code  0x00001f14    0xd4  DblAdd.o [4]
  .text               ro code  0x00001fe8     0x2  xtls.o [3]
  .rodata             const    0x00001fea     0x2  os_dbg.o [1]
  .text               ro code  0x00001fec   0x948  os_core.o [1]
  .text               ro code  0x00002934   0x160  os_cpu_c.o [1]
  .text               ro code  0x00002a94    0x88  os_prio.o [1]
  .text               ro code  0x00002b1c   0x5c0  os_task.o [1]
  .text               ro code  0x000030dc   0x458  os_tick.o [1]
  .text               ro code  0x00003534   0x170  os_mem.o [1]
  .text               ro code  0x000036a4    0xd0  os_msg.o [1]
  .text               ro code  0x00003774    0x1c  os_mutex.o [1]
  .text               ro code  0x00003790    0x1c  os_q.o [1]
  .text               ro code  0x000037ac   0x2e2  os_sem.o [1]
  .rodata             const    0x00003a8e     0x2  os_dbg.o [1]
  .text               ro code  0x00003a90   0x2e8  os_tmr.o [1]
  .text               ro code  0x00003d78   0x188  os_dbg.o [1]
  .text               ro code  0x00003f00    0xac  os_cfg_app.o [1]
  CODE                ro code  0x00003fac    0x2a  cpu_a.o [1]
  .rodata             const    0x00003fd6     0x2  os_dbg.o [1]
  .text               ro code  0x00003fd8   0x680  os_scheduler.o [1]
  .text               ro code  0x00004658   0x198  cpu_core.o [1]
  CODE                ro code  0x000047f0    0x84  os_cpu_a.o [1]
  .text               ro code  0x00004874    0x28  cpu_bsp.o [1]
  .text               ro code  0x0000489c    0x48  os_time.o [1]
  .text               ro code  0x000048e4    0x24  printf.o [3]
  .text               ro code  0x00004908    0x5e  lib_mem.o [1]
  .rodata             const    0x00004966     0x2  os_dbg.o [1]
  .text               ro code  0x00004968    0xa8  bsp.o [1]
  .text               ro code  0x00004a10   0x468  sysctl.o [1]
  .text               ro code  0x00004e78   0x256  bsp_int.o [1]
  .rodata             const    0x000050ce     0x2  os_dbg.o [1]
  .text               ro code  0x000050d0   0x264  bsp_display.o [1]
  .text               ro code  0x00005334    0xc4  bsp_io.o [1]
  .text               ro code  0x000053f8    0xc8  bsp_sensors.o [1]
  .text               ro code  0x000054c0   0x1f8  bsp_motor.o [1]
  .text               ro code  0x000056b8   0x140  cpu_c.o [1]
  .text               ro code  0x000057f8    0xc4  i2c.o [1]
  .text               ro code  0x000058bc   0x2d8  gpio.o [1]
  .text               ro code  0x00005b94    0xf0  pwm.o [1]
  .text               ro code  0x00005c84   0x6a8  app.o [1]
  .text               ro code  0x0000632c    0xd6  xfspos.o [3]
  .rodata             const    0x00006402     0x2  os_dbg.o [1]
  .text               ro code  0x00006404    0xb0  fflush.o [3]
  .text               ro code  0x000064b4     0xc  xfgpos.o [3]
  .text               ro code  0x000064c0    0x4c  lseek.o [6]
  .text               ro code  0x0000650c     0xc  errno.o [3]
  .text               ro code  0x00006518     0x4  xsyslock_nop.o [3]
  .text               ro code  0x0000651c    0x10  write.o [6]
  .text               ro code  0x0000652c    0xcc  XShHandles.o [3]
  .text               ro code  0x000065f8    0x1e  dwrite.o [6]
  .text               ro code  0x00006616    0x20  iarwstd.o [6]
  .text               ro code  0x00006636    0x22  iarwrite.o [6]
  .text               ro code  0x00006658    0x6c  iarttio.o [6]
  .text               ro code  0x000066c4     0x8  XShttio.o [3]
  .text               ro code  0x000066cc    0xb8  xfwprep.o [3]
  .text               ro code  0x00006784    0x22  fseek.o [3]
  .rodata             const    0x000067a6     0x2  os_dbg.o [1]
  .text               ro code  0x000067a8    0x80  xfofind.o [3]
  .text               ro code  0x00006828    0x7a  fclose.o [3]
  .text               ro code  0x000068a2    0x1a  close.o [6]
  .text               ro code  0x000068bc    0x16  remove.o [6]
  .rodata             const    0x000068d2     0x2  os_dbg.o [1]
  .rodata             const    0x000068d4    0x5c  sysctl.o [1]
  .text               ro code  0x00006930    0x58  xcloseall.o [3]
  .text               ro code  0x00006988    0x56  fputc.o [3]
  .rodata             const    0x000069de     0x2  os_dbg.o [1]
  .rodata             const    0x000069e0    0x50  bsp_display.o [1]
  .rodata             const    0x00006a30    0x48  gpio.o [1]
  .text               ro code  0x00006a78    0x40  zero_init3.o [5]
  .text               ro code  0x00006ab8    0x38  packbits_init_single.o [5]
  .rodata             const    0x00006af0    0x34  os_dbg.o [1]
  .rodata             const    0x00006b24    0x30  os_dbg.o [1]
  .rodata             const    0x00006b54    0x30  os_tick.o [1]
  .rodata             const    0x00006b84    0x2c  os_dbg.o [1]
  .rodata             const    0x00006bb0    0x28  os_dbg.o [1]
  .rodata             const    0x00006bd8    0x28  os_dbg.o [1]
  .text               ro code  0x00006c00    0x28  data_init.o [5]
  .iar.init_table     const    0x00006c28    0x20  - Linker created -
  .rodata             const    0x00006c48    0x20  os_dbg.o [1]
  .text               ro code  0x00006c68    0x1a  cmain.o [5]
  .text               ro code  0x00006c82     0x4  low_level_init.o [3]
  .text               ro code  0x00006c86     0x4  exit.o [3]
  .rodata             const    0x00006c8a     0x2  os_dbg.o [1]
  .text               ro code  0x00006c8c     0xe  cexit.o [5]
  .rodata             const    0x00006c9a     0x2  os_dbg.o [1]
  .text               ro code  0x00006c9c    0x14  exit.o [6]
  .rodata             const    0x00006cb0    0x18  os_tmr.o [1]
  .text               ro code  0x00006cc8    0x16  xprout.o [3]
  .rodata             const    0x00006cde     0x1  os_cfg_app.o [1]
  .rodata             const    0x00006cdf     0x1  os_cfg_app.o [1]
  .text               ro code  0x00006ce0     0xc  putchar.o [3]
  .rodata             const    0x00006cec    0x14  app.o [1]
  .rodata             const    0x00006d00    0x14  os_core.o [1]
  .rodata             const    0x00006d14    0x14  os_tick.o [1]
  .rodata             const    0x00006d28    0x14  os_tick.o [1]
  .rodata             const    0x00006d3c    0x10  app.o [1]
  .rodata             const    0x00006d4c    0x10  app.o [1]
  .rodata             const    0x00006d5c    0x10  app.o [1]
  .rodata             const    0x00006d6c    0x10  app.o [1]
  .rodata             const    0x00006d7c    0x10  app.o [1]
  .rodata             const    0x00006d8c    0x10  app.o [1]
  .rodata             const    0x00006d9c    0x10  os_scheduler.o [1]
  .rodata             const    0x00006dac     0xc  app.o [1]
  .rodata             const    0x00006db8     0xc  app.o [1]
  .rodata             const    0x00006dc4     0xc  app.o [1]
  .rodata             const    0x00006dd0     0xc  app.o [1]
  .rodata             const    0x00006ddc     0xc  app.o [1]
  .rodata             const    0x00006de8     0xc  os_core.o [1]
  .rodata             const    0x00006df4     0xc  sysctl.o [1]
  .rodata             const    0x00006e00     0xc  sysctl.o [1]
  .text               ro code  0x00006e0c     0xc  app_vect.o [1]
  .text               ro code  0x00006e18     0xc  cstartup_M.o [5]
  .rodata             const    0x00006e24     0x8  bsp_display.o [1]
  .rodata             const    0x00006e2c     0x8  bsp_display.o [1]
  .rodata             const    0x00006e34     0x8  os_core.o [1]
  .rodata             const    0x00006e3c     0x8  os_task.o [1]
  .rodata             const    0x00006e44     0x4  os_cfg_app.o [1]
  .rodata             const    0x00006e48     0x4  os_cfg_app.o [1]
  .rodata             const    0x00006e4c     0x4  os_cfg_app.o [1]
  .rodata             const    0x00006e50     0x4  os_cfg_app.o [1]
  .rodata             const    0x00006e54     0x4  os_cfg_app.o [1]
  .rodata             const    0x00006e58     0x4  os_cfg_app.o [1]
  .rodata             const    0x00006e5c     0x4  os_cfg_app.o [1]
  .rodata             const    0x00006e60     0x4  os_cfg_app.o [1]
  .rodata             const    0x00006e64     0x4  os_cfg_app.o [1]
  .rodata             const    0x00006e68     0x4  os_cfg_app.o [1]
  .rodata             const    0x00006e6c     0x4  os_cfg_app.o [1]
  .rodata             const    0x00006e70     0x4  os_cfg_app.o [1]
  .rodata             const    0x00006e74     0x4  os_cfg_app.o [1]
  .rodata             const    0x00006e78     0x4  os_cfg_app.o [1]
  .rodata             const    0x00006e7c     0x4  os_cfg_app.o [1]
  .rodata             const    0x00006e80     0x4  os_cfg_app.o [1]
  .rodata             const    0x00006e84     0x4  os_cfg_app.o [1]
  .rodata             const    0x00006e88     0x4  os_cfg_app.o [1]
  .rodata             const    0x00006e8c     0x4  os_cfg_app.o [1]
  .rodata             const    0x00006e90     0x4  os_cfg_app.o [1]
  .rodata             const    0x00006e94     0x4  os_cfg_app.o [1]
  .rodata             const    0x00006e98     0x4  os_cfg_app.o [1]
  .rodata             const    0x00006e9c     0x4  os_cfg_app.o [1]
  .rodata             const    0x00006ea0     0x4  os_dbg.o [1]
  .rodata             const    0x00006ea4     0x4  os_dbg.o [1]
  .rodata             const    0x00006ea8     0x4  os_dbg.o [1]
  .rodata             const    0x00006eac     0x1  os_dbg.o [1]
  .rodata             const    0x00006ead     0x1  os_dbg.o [1]
  .rodata             const    0x00006eae     0x1  os_dbg.o [1]
  .rodata             const    0x00006eaf     0x1  os_dbg.o [1]
  .rodata             const    0x00006eb0     0x1  os_dbg.o [1]
  .rodata             const    0x00006eb1     0x1  os_dbg.o [1]
  .rodata             const    0x00006eb2     0x1  os_dbg.o [1]
  .rodata             const    0x00006eb3     0x1  os_dbg.o [1]
  .rodata             const    0x00006eb4     0x1  os_dbg.o [1]
  .rodata             const    0x00006eb5     0x1  os_dbg.o [1]
  .rodata             const    0x00006eb6     0x1  os_dbg.o [1]
  .rodata             const    0x00006eb7     0x1  os_dbg.o [1]
  .rodata             const    0x00006eb8     0x1  os_dbg.o [1]
  .rodata             const    0x00006eb9     0x1  os_dbg.o [1]
  .rodata             const    0x00006eba     0x1  os_dbg.o [1]
  .rodata             const    0x00006ebb     0x1  os_dbg.o [1]
  .rodata             const    0x00006ebc     0x1  os_dbg.o [1]
  .rodata             const    0x00006ebd     0x1  os_dbg.o [1]
  .rodata             const    0x00006ebe     0x1  os_dbg.o [1]
  .rodata             const    0x00006ebf     0x1  os_dbg.o [1]
  .rodata             const    0x00006ec0     0x1  os_dbg.o [1]
  .rodata             const    0x00006ec1     0x1  os_dbg.o [1]
  .rodata             const    0x00006ec2     0x1  os_dbg.o [1]
  .rodata             const    0x00006ec3     0x1  os_dbg.o [1]
  .rodata             const    0x00006ec4     0x1  os_dbg.o [1]
  .rodata             const    0x00006ec5     0x1  os_dbg.o [1]
  .rodata             const    0x00006ec6     0x1  os_dbg.o [1]
  .rodata             const    0x00006ec7     0x1  os_dbg.o [1]
  .rodata             const    0x00006ec8     0x1  os_dbg.o [1]
  .rodata             const    0x00006ec9     0x1  os_dbg.o [1]
  .rodata             const    0x00006eca     0x1  os_dbg.o [1]
  .rodata             const    0x00006ecb     0x1  os_dbg.o [1]
  .rodata             const    0x00006ecc     0x1  os_dbg.o [1]
  .rodata             const    0x00006ecd     0x1  os_dbg.o [1]
  .rodata             const    0x00006ece     0x1  os_dbg.o [1]
  .text               ro code  0x00006ed0     0x0  cstart_closeall.o [5]
  .rodata             const    0x00006ed0     0x0  zero_init3.o [5]
  .rodata             const    0x00006ed0     0x0  packbits_init_single.o [5]
  Initializer bytes   const    0x00006ed0    0x8a  <for P7-1>
                             - 0x00006f5a  0x6e3e

"P7", part 1 of 3:                          0x1ec
  P7-1                         0x20000000   0x1ec  <Init block>
    .data             inited   0x20000000     0x4  app.o [1]
    .data             inited   0x20000004    0x40  xfiles.o [3]
    .data             inited   0x20000044    0x40  xfiles.o [3]
    .data             inited   0x20000084    0x40  xfiles.o [3]
    .data             inited   0x200000c4    0x20  xfiles.o [3]
    .data             inited   0x200000e4     0x8  XShttio.o [3]
    __DLIB_PERTHREAD  inited   0x200000ec    0x88  localeconv.o [3]
    __DLIB_PERTHREAD  inited   0x20000174    0x74  setlocale.o [3]
    __DLIB_PERTHREAD  inited   0x200001e8     0x4  errno.o [3]
                             - 0x200001ec   0x1ec

"P7", part 2 of 3:                          0x400
  HEAP                         0x200001f0     0x0  <Block>
  CSTACK                       0x200001f0   0x400  <Block>
    CSTACK            uninit   0x200001f0   0x400  <Block tail>
                             - 0x200005f0   0x400

"P7", part 3 of 3:                         0x29d8
  .bss                zero     0x200005f0   0x640  os_cfg_app.o [1]
  .bss                zero     0x20000c30   0x200  app.o [1]
  .bss                zero     0x20000e30   0x200  app.o [1]
  .bss                zero     0x20001030   0x200  app.o [1]
  .bss                zero     0x20001230   0x200  app.o [1]
  .bss                zero     0x20001430   0x200  app.o [1]
  .bss                zero     0x20001630   0x200  app.o [1]
  .bss                zero     0x20001830   0x200  app.o [1]
  .bss                zero     0x20001a30   0x200  os_cfg_app.o [1]
  .bss                zero     0x20001c30   0x200  os_cfg_app.o [1]
  .bss                zero     0x20001e30   0x200  os_cfg_app.o [1]
  .bss                zero     0x20002030   0x200  os_cfg_app.o [1]
  .bss                zero     0x20002230   0x190  os_scheduler.o [1]
  .bss                zero     0x200023c0   0x140  app.o [1]
  .bss                zero     0x20002500   0x118  bsp_int.o [1]
  .bss                zero     0x20002618    0xf0  os_var.o [1]
  .bss                zero     0x20002708    0x94  app.o [1]
  .bss                zero     0x2000279c    0x94  app.o [1]
  .bss                zero     0x20002830    0x94  app.o [1]
  .bss                zero     0x200028c4    0x94  app.o [1]
  .bss                zero     0x20002958    0x94  app.o [1]
  .bss                zero     0x200029ec    0x94  app.o [1]
  .bss                zero     0x20002a80    0x94  app.o [1]
  .bss                zero     0x20002b14    0x94  os_var.o [1]
  .bss                zero     0x20002ba8    0x94  os_var.o [1]
  .bss                zero     0x20002c3c    0x94  os_var.o [1]
  .bss                zero     0x20002cd0    0x80  XShHandles.o [3]
  .bss                zero     0x20002d50    0x68  os_cfg_app.o [1]
  .bss                zero     0x20002db8    0x68  os_cfg_app.o [1]
  .bss                zero     0x20002e20    0x50  xfiles.o [3]
  .bss                zero     0x20002e70    0x50  xfiles.o [3]
  .bss                zero     0x20002ec0    0x28  os_var.o [1]
  .bss                zero     0x20002ee8    0x20  os_scheduler.o [1]
  .bss                zero     0x20002f08    0x10  cpu_core.o [1]
  .bss                zero     0x20002f18     0x8  os_var.o [1]
  .bss                zero     0x20002f20     0x8  xxmemxmalloc.o [3]
  .bss                zero     0x20002f28     0x4  app.o [1]
  .bss                zero     0x20002f2c     0x4  app.o [1]
  .bss                zero     0x20002f30     0x4  bsp.o [1]
  .bss                zero     0x20002f34     0x4  bsp_display.o [1]
  .bss                zero     0x20002f38     0x4  cpu_core.o [1]
  .bss                zero     0x20002f3c     0x4  cpu_core.o [1]
  .bss                zero     0x20002f40     0x4  cpu_core.o [1]
  .bss                zero     0x20002f44     0x4  cpu_core.o [1]
  .bss                zero     0x20002f48     0x4  cpu_core.o [1]
  .bss                zero     0x20002f4c     0x4  cpu_core.o [1]
  .bss                zero     0x20002f50     0x4  os_cpu_c.o [1]
  .bss                zero     0x20002f54     0x4  os_prio.o [1]
  .bss                zero     0x20002f58     0x4  os_scheduler.o [1]
  .bss                zero     0x20002f5c     0x4  os_tick.o [1]
  .bss                zero     0x20002f60     0x4  os_var.o [1]
  .bss                zero     0x20002f64     0x4  os_var.o [1]
  .bss                zero     0x20002f68     0x4  os_var.o [1]
  .bss                zero     0x20002f6c     0x4  os_var.o [1]
  .bss                zero     0x20002f70     0x4  os_var.o [1]
  .bss                zero     0x20002f74     0x4  os_var.o [1]
  .bss                zero     0x20002f78     0x4  os_var.o [1]
  .bss                zero     0x20002f7c     0x4  os_var.o [1]
  .bss                zero     0x20002f80     0x4  os_var.o [1]
  .bss                zero     0x20002f84     0x4  os_var.o [1]
  .bss                zero     0x20002f88     0x4  os_var.o [1]
  .bss                zero     0x20002f8c     0x4  os_var.o [1]
  .bss                zero     0x20002f90     0x4  os_var.o [1]
  .bss                zero     0x20002f94     0x4  os_var.o [1]
  .bss                zero     0x20002f98     0x4  os_var.o [1]
  .bss                zero     0x20002f9c     0x4  os_var.o [1]
  .bss                zero     0x20002fa0     0x4  os_var.o [1]
  .bss                zero     0x20002fa4     0x4  os_var.o [1]
  .bss                zero     0x20002fa8     0x4  os_var.o [1]
  .bss                zero     0x20002fac     0x4  os_var.o [1]
  .bss                zero     0x20002fb0     0x4  xgetmemchunk.o [3]
  .bss                zero     0x20002fb4     0x2  cpu_core.o [1]
  .bss                zero     0x20002fb6     0x2  cpu_core.o [1]
  .bss                zero     0x20002fb8     0x2  os_var.o [1]
  .bss                zero     0x20002fba     0x2  os_var.o [1]
  .bss                zero     0x20002fbc     0x2  os_var.o [1]
  .bss                zero     0x20002fbe     0x2  os_var.o [1]
  .bss                zero     0x20002fc0     0x2  os_var.o [1]
  .bss                zero     0x20002fc2     0x1  os_var.o [1]
  .bss                zero     0x20002fc3     0x1  os_var.o [1]
  .bss                zero     0x20002fc4     0x1  os_var.o [1]
  .bss                zero     0x20002fc5     0x1  os_var.o [1]
  .bss                zero     0x20002fc6     0x1  os_var.o [1]
                             - 0x20002fc7  0x29d7


*******************************************************************************
*** INIT TABLE
***

          Address     Size
          -------     ----
Zero (__iar_zero_init3)
    1 destination range, total size 0x29d7:
          0x200005f0  0x29d7

Copy/packbits (__iar_packbits_init_single3)
    1 source range, total size 0x8a (28% of destination):
          0x00006ed0    0x8a
    1 destination range, total size 0x1ec:
          0x20000000   0x1ec



*******************************************************************************
*** MODULE SUMMARY
***

    Module                  ro code  ro data  rw data
    ------                  -------  -------  -------
C:\Users\TANKX\Desktop\new_ver2\CE4053-ce4053_source_code-c5208c241304\ce4053\Micrium\Software\EvalBoards\TI\LM3S9B92-EVALBOT\IAR\uCOS-III-CE4053_PG\Debug\Obj: [1]
    app.o                     1 704      177    4 952
    app_vect.o                   12      284
    bsp.o                       168                 4
    bsp_display.o               612       96        4
    bsp_int.o                   598               280
    bsp_io.o                    196
    bsp_motor.o                 504
    bsp_sensors.o               200
    cpu_a.o                      42
    cpu_bsp.o                    40
    cpu_c.o                     320
    cpu_core.o                  408                44
    gpio.o                      728       72
    i2c.o                       196
    lib_mem.o                    94
    os_cfg_app.o                172      100    3 856
    os_core.o                 2 376       40
    os_cpu_a.o                  132
    os_cpu_c.o                  352                 4
    os_dbg.o                    392      345
    os_mem.o                    368
    os_msg.o                    208
    os_mutex.o                   28
    os_prio.o                   136                 4
    os_q.o                       28
    os_scheduler.o            1 664       16      436
    os_sem.o                    738
    os_task.o                 1 472        8
    os_tick.o                 1 112       88        4
    os_time.o                    72
    os_tmr.o                    744       24
    os_var.o                                      827
    pwm.o                       240
    sysctl.o                  1 128      116
    -------------------------------------------------
    Total:                   17 184    1 366   10 415

command line: [2]
    -------------------------------------------------
    Total:

dl7M_tlf.a: [3]
    XShHandles.o                204               128
    XShttio.o                     8        3        8
    div.o                        14
    errno.o                      12        2        4
    exit.o                        4
    fclose.o                    122
    fflush.o                    176
    fputc.o                      86
    fseek.o                      34
    localeconv.o                108       38      136
    low_level_init.o              4
    printf.o                     36
    putchar.o                    12
    setlocale.o                  20       32      116
    xcloseall.o                  88
    xencoding_sb.o               96
    xfgpos.o                     12
    xfiles.o                              62      384
    xfofind.o                   128
    xfspos.o                    214
    xfwprep.o                   184
    xgetmemchunk.o               44                 4
    xmbcurmax.o                  10
    xmbtowc.o                    32
    xprintffull.o             4 506
    xprout.o                     22
    xsyslock_nop.o                4
    xtls.o                        2
    xwctomb.o                    26
    xxmemxfree.o                128
    xxmemxmalloc.o              176                 8
    -------------------------------------------------
    Total:                    6 512      137      788

m7M_tl.a: [4]
    DblAdd.o                    212
    DblCmpGe.o                   46
    DblCmpLe.o                   46
    DblDiv.o                    598
    DblMul.o                    418
    DblSub.o                    384
    DblToI32.o                   88
    I32ToDbl.o                   48
    xdnorm.o                     68
    xdscale.o                   268
    -------------------------------------------------
    Total:                    2 176

rt7M_tl.a: [5]
    ABImemcpy_unaligned.o       118
    I64DivMod.o                 238
    I64DivZer.o                   2
    cexit.o                      14
    cmain.o                      26
    cstart_closeall.o
    cstartup_M.o                 12
    data_init.o                  40
    memchr.o                     88
    packbits_init_single.o       56
    strchr.o                     22
    strlen.o                     54
    zero_init3.o                 64
    -------------------------------------------------
    Total:                      734

shb_l.a: [6]
    close.o                      26
    dwrite.o                     30
    exit.o                       20
    iarttio.o                   108
    iarwrite.o                   34
    iarwstd.o                    32
    lseek.o                      76
    remove.o                     22
    write.o                      16
    -------------------------------------------------
    Total:                      364

    Gaps                          1
    Linker created                        32    1 024
-----------------------------------------------------
    Grand Total:             26 971    1 535   12 227


*******************************************************************************
*** ENTRY LIST
***

Entry                      Address   Size  Type      Object
-----                      -------   ----  ----      ------
.iar.init_table$$Base   0x00006c28          --   Gb  - Linker created -
.iar.init_table$$Limit  0x00006c48          --   Gb  - Linker created -
?main                   0x00006c69         Code  Gb  cmain.o [5]
AVL_Partition           0x20002ee8   0x20  Data  Gb  os_scheduler.o [1]
AVL_array               0x20002230  0x190  Data  Gb  os_scheduler.o [1]
AVL_deleteNode          0x000042a7  0x156  Code  Gb  os_scheduler.o [1]
AVL_getBalance          0x00004197   0x22  Code  Gb  os_scheduler.o [1]
AVL_getLowestDeadline   0x000040af    0xe  Code  Gb  os_scheduler.o [1]
AVL_height              0x000040cf    0xc  Code  Gb  os_scheduler.o [1]
AVL_init                0x00003fd9   0x72  Code  Gb  os_scheduler.o [1]
AVL_insertDeadline      0x0000404b   0x4e  Code  Gb  os_scheduler.o [1]
AVL_insertNode          0x000041b9   0xe2  Code  Gb  os_scheduler.o [1]
AVL_leftRotate          0x0000414f   0x48  Code  Gb  os_scheduler.o [1]
AVL_max                 0x000040bd   0x12  Code  Gb  os_scheduler.o [1]
AVL_minValueNode        0x0000429b    0xc  Code  Gb  os_scheduler.o [1]
AVL_newNode             0x000040db   0x2c  Code  Gb  os_scheduler.o [1]
AVL_removeDeadline      0x00004099   0x16  Code  Gb  os_scheduler.o [1]
AVL_rightRotate         0x00004107   0x48  Code  Gb  os_scheduler.o [1]
AVL_root                0x20002f58    0x4  Data  Gb  os_scheduler.o [1]
AVL_search              0x000043fd   0x3c  Code  Gb  os_scheduler.o [1]
AppTaskDispatch         0x00005df5  0x1d4  Code  Lc  app.o [1]
AppTaskDispatchStk      0x20000e30  0x200  Data  Lc  app.o [1]
AppTaskDispatchTCB      0x2000279c   0x94  Data  Lc  app.o [1]
AppTaskFive             0x00006131   0x66  Code  Lc  app.o [1]
AppTaskFiveStk          0x20001830  0x200  Data  Lc  app.o [1]
AppTaskFiveTCB          0x20002a80   0x94  Data  Lc  app.o [1]
AppTaskFour             0x000060c9   0x66  Code  Lc  app.o [1]
AppTaskFourStk          0x20001630  0x200  Data  Lc  app.o [1]
AppTaskFourTCB          0x200029ec   0x94  Data  Lc  app.o [1]
AppTaskOne              0x00005fc9   0x56  Code  Lc  app.o [1]
AppTaskOneStk           0x20001030  0x200  Data  Lc  app.o [1]
AppTaskOneTCB           0x20002830   0x94  Data  Lc  app.o [1]
AppTaskStart            0x00005cdd  0x116  Code  Lc  app.o [1]
AppTaskStartStk         0x20000c30  0x200  Data  Lc  app.o [1]
AppTaskStartTCB         0x20002708   0x94  Data  Lc  app.o [1]
AppTaskThree            0x00006079   0x50  Code  Lc  app.o [1]
AppTaskThreeStk         0x20001430  0x200  Data  Lc  app.o [1]
AppTaskThreeTCB         0x20002958   0x94  Data  Lc  app.o [1]
AppTaskTwo              0x00006021   0x54  Code  Lc  app.o [1]
AppTaskTwoStk           0x20001230  0x200  Data  Lc  app.o [1]
AppTaskTwoTCB           0x200028c4   0x94  Data  Lc  app.o [1]
App_BusFault_ISR        0x00006e11    0x2  Code  Lc  app_vect.o [1]
App_Fault_ISR           0x00006e0f    0x2  Code  Lc  app_vect.o [1]
App_MemFault_ISR        0x00006e15    0x2  Code  Lc  app_vect.o [1]
App_NMI_ISR             0x00006e0d    0x2  Code  Lc  app_vect.o [1]
App_Spurious_ISR        0x00006e17    0x2  Code  Lc  app_vect.o [1]
App_UsageFault_ISR      0x00006e13    0x2  Code  Lc  app_vect.o [1]
BSP_BumpSensorsInit     0x000053f9   0x18  Code  Gb  bsp_sensors.o [1]
BSP_CPUClkFreq          0x000049cd   0x12  Code  Gb  bsp.o [1]
BSP_CPU_ClkFreq_MHz     0x20002f30    0x4  Data  Gb  bsp.o [1]
BSP_DisplayClear        0x000051a7   0x4c  Code  Gb  bsp_display.o [1]
BSP_DisplayInit         0x0000522f   0xd8  Code  Gb  bsp_display.o [1]
BSP_DisplayOn           0x000051f3   0x3c  Code  Gb  bsp_display.o [1]
BSP_DisplayWriteArray   0x0000512b   0x3c  Code  Lc  bsp_display.o [1]
BSP_DisplayWriteByte    0x000050f9   0x32  Code  Lc  bsp_display.o [1]
BSP_DisplayWriteFinal   0x00005167   0x40  Code  Lc  bsp_display.o [1]
BSP_DisplayWriteFirst   0x000050d1   0x28  Code  Lc  bsp_display.o [1]
BSP_Init                0x00004969   0x64  Code  Gb  bsp.o [1]
BSP_IntDisAll           0x00004e79    0x8  Code  Gb  bsp_int.o [1]
BSP_IntEn               0x00004e81   0x10  Code  Gb  bsp_int.o [1]
BSP_IntHandler          0x000050a7   0x20  Code  Lc  bsp_int.o [1]
BSP_IntHandlerADC0      0x00004f2b    0xa  Code  Gb  bsp_int.o [1]
BSP_IntHandlerADC1      0x00004f35    0xa  Code  Gb  bsp_int.o [1]
BSP_IntHandlerADC1_0    0x00005061    0xa  Code  Gb  bsp_int.o [1]
BSP_IntHandlerADC1_1    0x0000506b    0xa  Code  Gb  bsp_int.o [1]
BSP_IntHandlerADC1_2    0x00005075    0xa  Code  Gb  bsp_int.o [1]
BSP_IntHandlerADC1_3    0x0000507f    0xa  Code  Gb  bsp_int.o [1]
BSP_IntHandlerADC2      0x00004f3f    0xa  Code  Gb  bsp_int.o [1]
BSP_IntHandlerADC3      0x00004f49    0xa  Code  Gb  bsp_int.o [1]
BSP_IntHandlerCAN0      0x0000501b    0xa  Code  Gb  bsp_int.o [1]
BSP_IntHandlerCAN1      0x00005025    0xa  Code  Gb  bsp_int.o [1]
BSP_IntHandlerCOMP0     0x00004f99    0xa  Code  Gb  bsp_int.o [1]
BSP_IntHandlerCOMP1     0x00004fa3    0xa  Code  Gb  bsp_int.o [1]
BSP_IntHandlerCOMP2     0x00004fad    0xa  Code  Gb  bsp_int.o [1]
BSP_IntHandlerDummy     0x000050cd    0x2  Code  Lc  bsp_int.o [1]
BSP_IntHandlerEPI       0x00005093    0xa  Code  Gb  bsp_int.o [1]
BSP_IntHandlerETH       0x0000502f    0xa  Code  Gb  bsp_int.o [1]
BSP_IntHandlerFLASH     0x00004fc1    0xa  Code  Gb  bsp_int.o [1]
BSP_IntHandlerGPIOA     0x00004ed1    0xa  Code  Gb  bsp_int.o [1]
BSP_IntHandlerGPIOB     0x00004edb    0xa  Code  Gb  bsp_int.o [1]
BSP_IntHandlerGPIOC     0x00004ee5    0xa  Code  Gb  bsp_int.o [1]
BSP_IntHandlerGPIOD     0x00004eef    0xa  Code  Gb  bsp_int.o [1]
BSP_IntHandlerGPIOE     0x00004ef9    0xa  Code  Gb  bsp_int.o [1]
BSP_IntHandlerGPIOF     0x00004fcb    0xa  Code  Gb  bsp_int.o [1]
BSP_IntHandlerGPIOG     0x00004fd5    0xa  Code  Gb  bsp_int.o [1]
BSP_IntHandlerGPIOH     0x00004fdf    0xa  Code  Gb  bsp_int.o [1]
BSP_IntHandlerGPIOJ     0x0000509d    0xa  Code  Gb  bsp_int.o [1]
BSP_IntHandlerHIBERNATE
                        0x00005039    0xa  Code  Gb  bsp_int.o [1]
BSP_IntHandlerI2C0      0x00004f21    0xa  Code  Gb  bsp_int.o [1]
BSP_IntHandlerI2C1      0x00005011    0xa  Code  Gb  bsp_int.o [1]
BSP_IntHandlerI2S0      0x00005089    0xa  Code  Gb  bsp_int.o [1]
BSP_IntHandlerSSI0      0x00004f17    0xa  Code  Gb  bsp_int.o [1]
BSP_IntHandlerSSI1      0x00004ff3    0xa  Code  Gb  bsp_int.o [1]
BSP_IntHandlerSYSCTL    0x00004fb7    0xa  Code  Gb  bsp_int.o [1]
BSP_IntHandlerTIMER0A   0x00004f5d    0xa  Code  Gb  bsp_int.o [1]
BSP_IntHandlerTIMER0B   0x00004f67    0xa  Code  Gb  bsp_int.o [1]
BSP_IntHandlerTIMER1A   0x00004f71    0xa  Code  Gb  bsp_int.o [1]
BSP_IntHandlerTIMER1B   0x00004f7b    0xa  Code  Gb  bsp_int.o [1]
BSP_IntHandlerTIMER2A   0x00004f85    0xa  Code  Gb  bsp_int.o [1]
BSP_IntHandlerTIMER2B   0x00004f8f    0xa  Code  Gb  bsp_int.o [1]
BSP_IntHandlerTIMER3A   0x00004ffd    0xa  Code  Gb  bsp_int.o [1]
BSP_IntHandlerTIMER3B   0x00005007    0xa  Code  Gb  bsp_int.o [1]
BSP_IntHandlerUART0     0x00004f03    0xa  Code  Gb  bsp_int.o [1]
BSP_IntHandlerUART1     0x00004f0d    0xa  Code  Gb  bsp_int.o [1]
BSP_IntHandlerUART2     0x00004fe9    0xa  Code  Gb  bsp_int.o [1]
BSP_IntHandlerUDMA_ERR  0x00005057    0xa  Code  Gb  bsp_int.o [1]
BSP_IntHandlerUDMA_SW   0x0000504d    0xa  Code  Gb  bsp_int.o [1]
BSP_IntHandlerUSB       0x00005043    0xa  Code  Gb  bsp_int.o [1]
BSP_IntHandlerWATCHDOG  0x00004f53    0xa  Code  Gb  bsp_int.o [1]
BSP_IntInit             0x00004eb9   0x18  Code  Gb  bsp_int.o [1]
BSP_IntVectSet          0x00004e91   0x28  Code  Gb  bsp_int.o [1]
BSP_IntVectTbl          0x20002500  0x118  Data  Lc  bsp_int.o [1]
BSP_LED_Off             0x0000535f   0x36  Code  Gb  bsp_io.o [1]
BSP_LED_Toggle          0x00005395   0x5a  Code  Gb  bsp_io.o [1]
BSP_LEDsInit            0x0000534d   0x12  Code  Gb  bsp_io.o [1]
BSP_MotorDir            0x0000559d   0x44  Code  Gb  bsp_motor.o [1]
BSP_MotorRun            0x000055e1   0x1c  Code  Gb  bsp_motor.o [1]
BSP_MotorSpeed          0x0000562d   0x76  Code  Gb  bsp_motor.o [1]
BSP_MotorStop           0x000055fd   0x30  Code  Gb  bsp_motor.o [1]
BSP_MotorsInit          0x000054c1   0xdc  Code  Gb  bsp_motor.o [1]
BSP_PushButtonsInit     0x00005335   0x18  Code  Gb  bsp_io.o [1]
BSP_WheelSensorsInit    0x00005411   0xa2  Code  Gb  bsp_sensors.o [1]
CPU_CntLeadZeros        0x00003fc3         Code  Gb  cpu_a.o [1]
CPU_Init                0x00004659   0x10  Code  Gb  cpu_core.o [1]
CPU_IntDis              0x00003fad         Code  Gb  cpu_a.o [1]
CPU_IntDisMeasCtr       0x20002fb4    0x2  Data  Gb  cpu_core.o [1]
CPU_IntDisMeasInit      0x00004743   0x74  Code  Lc  cpu_core.o [1]
CPU_IntDisMeasMaxCalc   0x000047b7   0x14  Code  Lc  cpu_core.o [1]
CPU_IntDisMeasMaxCurGet
                        0x000046ad   0x18  Code  Gb  cpu_core.o [1]
CPU_IntDisMeasMaxCurReset
                        0x00004691   0x1c  Code  Gb  cpu_core.o [1]
CPU_IntDisMeasMaxCur_cnts
                        0x20002f48    0x4  Data  Gb  cpu_core.o [1]
CPU_IntDisMeasMax_cnts  0x20002f4c    0x4  Data  Gb  cpu_core.o [1]
CPU_IntDisMeasOvrhd_cnts
                        0x20002f44    0x4  Data  Gb  cpu_core.o [1]
CPU_IntDisMeasStart     0x000046c5   0x28  Code  Gb  cpu_core.o [1]
CPU_IntDisMeasStart_cnts
                        0x20002f3c    0x4  Data  Gb  cpu_core.o [1]
CPU_IntDisMeasStop      0x000046ed   0x40  Code  Gb  cpu_core.o [1]
CPU_IntDisMeasStop_cnts
                        0x20002f40    0x4  Data  Gb  cpu_core.o [1]
CPU_IntDisNestCtr       0x20002fb6    0x2  Data  Gb  cpu_core.o [1]
CPU_IntEn               0x00003fb1         Code  Gb  cpu_a.o [1]
CPU_IntSrcEn            0x000056b9  0x132  Code  Gb  cpu_c.o [1]
CPU_Name                0x20002f08   0x10  Data  Gb  cpu_core.o [1]
CPU_NameClr             0x00004669   0x22  Code  Gb  cpu_core.o [1]
CPU_NameInit            0x0000472d    0x8  Code  Lc  cpu_core.o [1]
CPU_RevBits             0x00003fc9         Code  Gb  cpu_a.o [1]
CPU_SR_Restore          0x00003fbd         Code  Gb  cpu_a.o [1]
CPU_SR_Save             0x00003fb5         Code  Gb  cpu_a.o [1]
CPU_TS_Init             0x00004735    0xe  Code  Lc  cpu_core.o [1]
CPU_TS_TmrFreqSet       0x0000468b    0x6  Code  Gb  cpu_core.o [1]
CPU_TS_TmrFreq_Hz       0x20002f38    0x4  Data  Gb  cpu_core.o [1]
CPU_TS_TmrInit          0x00004875   0x18  Code  Gb  cpu_bsp.o [1]
CPU_TS_TmrRd            0x0000488d    0x6  Code  Gb  cpu_bsp.o [1]
CPU_WaitForExcept       0x00003fd3         Code  Gb  cpu_a.o [1]
CPU_WaitForInt          0x00003fcf         Code  Gb  cpu_a.o [1]
CSTACK$$Base            0x200001f0          --   Gb  - Linker created -
CSTACK$$Limit           0x200005f0          --   Gb  - Linker created -
CounterSemaphore        0x20002ec0   0x28  Data  Gb  os_var.o [1]
CurrentDeadline         0x20002fac    0x4  Data  Gb  os_var.o [1]
GPIODirModeSet          0x000058bd   0x46  Code  Gb  gpio.o [1]
GPIOIntTypeSet          0x00005903   0x66  Code  Gb  gpio.o [1]
GPIOPadConfigSet        0x00005969  0x126  Code  Gb  gpio.o [1]
GPIOPinConfigure        0x00005b3f   0x4a  Code  Gb  gpio.o [1]
GPIOPinIntDisable       0x00005a8f   0x12  Code  Gb  gpio.o [1]
GPIOPinRead             0x00005aa1    0xa  Code  Gb  gpio.o [1]
GPIOPinTypeGPIOInput    0x00005ab7   0x22  Code  Gb  gpio.o [1]
GPIOPinTypeGPIOOutput   0x00005ad9   0x22  Code  Gb  gpio.o [1]
GPIOPinTypeI2C          0x00005afb   0x22  Code  Gb  gpio.o [1]
GPIOPinTypePWM          0x00005b1d   0x22  Code  Gb  gpio.o [1]
GPIOPinWrite            0x00005aab    0xc  Code  Gb  gpio.o [1]
HEAP$$Base              0x200001f0          --   Gb  - Linker created -
HEAP$$Limit             0x200001f0          --   Gb  - Linker created -
I2CMasterControl        0x0000588d    0x6  Code  Gb  i2c.o [1]
I2CMasterDataPut        0x000058b3    0xa  Code  Gb  i2c.o [1]
I2CMasterEnable         0x0000583b   0x12  Code  Gb  i2c.o [1]
I2CMasterErr            0x00005893   0x20  Code  Gb  i2c.o [1]
I2CMasterInitExpClk     0x000057f9   0x42  Code  Gb  i2c.o [1]
I2CMasterIntStatus      0x0000584d   0x2a  Code  Gb  i2c.o [1]
I2CMasterSlaveAddrSet   0x00005881    0xc  Code  Gb  i2c.o [1]
LIST                    0x200023c0  0x140  Data  Gb  app.o [1]
LoadInt                 0x00000793   0x6e  Code  Lc  xprintffull.o [3]
Mem_Clr                 0x00004909    0xc  Code  Gb  lib_mem.o [1]
Mem_Set                 0x00004915   0x52  Code  Gb  lib_mem.o [1]
OSCfg_DataSizeRAM       0x00006e9c    0x4  Data  Gb  os_cfg_app.o [1]
OSCfg_ISRStk            0x20001c30  0x200  Data  Gb  os_cfg_app.o [1]
OSCfg_ISRStkBasePtr     0x00006e54    0x4  Data  Gb  os_cfg_app.o [1]
OSCfg_ISRStkSize        0x00006e58    0x4  Data  Gb  os_cfg_app.o [1]
OSCfg_ISRStkSizeRAM     0x00006e5c    0x4  Data  Gb  os_cfg_app.o [1]
OSCfg_IdleTaskStk       0x20001a30  0x200  Data  Gb  os_cfg_app.o [1]
OSCfg_IdleTaskStkBasePtr
                        0x00006e44    0x4  Data  Gb  os_cfg_app.o [1]
OSCfg_IdleTaskStkLimit  0x00006e48    0x4  Data  Gb  os_cfg_app.o [1]
OSCfg_IdleTaskStkSize   0x00006e4c    0x4  Data  Gb  os_cfg_app.o [1]
OSCfg_IdleTaskStkSizeRAM
                        0x00006e50    0x4  Data  Gb  os_cfg_app.o [1]
OSCfg_Init              0x00003f01   0xac  Code  Gb  os_cfg_app.o [1]
OSCfg_MsgPool           0x200005f0  0x640  Data  Gb  os_cfg_app.o [1]
OSCfg_MsgPoolBasePtr    0x00006e64    0x4  Data  Gb  os_cfg_app.o [1]
OSCfg_MsgPoolSize       0x000012d6    0x2  Data  Gb  os_cfg_app.o [1]
OSCfg_MsgPoolSizeRAM    0x00006e60    0x4  Data  Gb  os_cfg_app.o [1]
OSCfg_StkSizeMin        0x00006e68    0x4  Data  Gb  os_cfg_app.o [1]
OSCfg_TickRate_Hz       0x00006e6c    0x4  Data  Gb  os_cfg_app.o [1]
OSCfg_TickTaskPrio      0x00006cde    0x1  Data  Gb  os_cfg_app.o [1]
OSCfg_TickTaskStk       0x20001e30  0x200  Data  Gb  os_cfg_app.o [1]
OSCfg_TickTaskStkBasePtr
                        0x00006e70    0x4  Data  Gb  os_cfg_app.o [1]
OSCfg_TickTaskStkLimit  0x00006e74    0x4  Data  Gb  os_cfg_app.o [1]
OSCfg_TickTaskStkSize   0x00006e78    0x4  Data  Gb  os_cfg_app.o [1]
OSCfg_TickTaskStkSizeRAM
                        0x00006e7c    0x4  Data  Gb  os_cfg_app.o [1]
OSCfg_TickWheel         0x20002d50   0x68  Data  Gb  os_cfg_app.o [1]
OSCfg_TickWheelSize     0x000012ee    0x2  Data  Gb  os_cfg_app.o [1]
OSCfg_TickWheelSizeRAM  0x00006e80    0x4  Data  Gb  os_cfg_app.o [1]
OSCfg_TmrTaskPrio       0x00006cdf    0x1  Data  Gb  os_cfg_app.o [1]
OSCfg_TmrTaskRate_Hz    0x00006e84    0x4  Data  Gb  os_cfg_app.o [1]
OSCfg_TmrTaskStk        0x20002030  0x200  Data  Gb  os_cfg_app.o [1]
OSCfg_TmrTaskStkBasePtr
                        0x00006e88    0x4  Data  Gb  os_cfg_app.o [1]
OSCfg_TmrTaskStkLimit   0x00006e8c    0x4  Data  Gb  os_cfg_app.o [1]
OSCfg_TmrTaskStkSize    0x00006e90    0x4  Data  Gb  os_cfg_app.o [1]
OSCfg_TmrTaskStkSizeRAM
                        0x00006e94    0x4  Data  Gb  os_cfg_app.o [1]
OSCfg_TmrWheel          0x20002db8   0x68  Data  Gb  os_cfg_app.o [1]
OSCfg_TmrWheelSize      0x00001326    0x2  Data  Gb  os_cfg_app.o [1]
OSCfg_TmrWheelSizeRAM   0x00006e98    0x4  Data  Gb  os_cfg_app.o [1]
OSDbg_AppHooksEn        0x00006ead    0x1  Data  Gb  os_dbg.o [1]
OSDbg_ArgChkEn          0x00006eac    0x1  Data  Gb  os_dbg.o [1]
OSDbg_CalledFromISRChkEn
                        0x00006eae    0x1  Data  Gb  os_dbg.o [1]
OSDbg_DataSize          0x00006ea8    0x4  Data  Gb  os_dbg.o [1]
OSDbg_DbgEn             0x0000138a    0x2  Data  Gb  os_dbg.o [1]
OSDbg_EndiannessTest    0x00006ea0    0x4  Data  Gb  os_dbg.o [1]
OSDbg_FlagEn            0x00006eaf    0x1  Data  Gb  os_dbg.o [1]
OSDbg_FlagGrp           0x00006bb0   0x28  Data  Gb  os_dbg.o [1]
OSDbg_ISRPostDeferredEn
                        0x00006eb0    0x1  Data  Gb  os_dbg.o [1]
OSDbg_Mem               0x00006c48   0x20  Data  Gb  os_dbg.o [1]
OSDbg_MemEn             0x00006eb1    0x1  Data  Gb  os_dbg.o [1]
OSDbg_MemSize           0x00001456    0x2  Data  Gb  os_dbg.o [1]
OSDbg_MsgEn             0x00006eb2    0x1  Data  Gb  os_dbg.o [1]
OSDbg_MsgPoolSize       0x00001682    0x2  Data  Gb  os_dbg.o [1]
OSDbg_MsgQSize          0x000016b2    0x2  Data  Gb  os_dbg.o [1]
OSDbg_MsgSize           0x000014ce    0x2  Data  Gb  os_dbg.o [1]
OSDbg_Mutex             0x00006b84   0x2c  Data  Gb  os_dbg.o [1]
OSDbg_MutexDelEn        0x00006eb4    0x1  Data  Gb  os_dbg.o [1]
OSDbg_MutexEn           0x00006eb3    0x1  Data  Gb  os_dbg.o [1]
OSDbg_MutexPendAbortEn  0x00006eb5    0x1  Data  Gb  os_dbg.o [1]
OSDbg_MutexSize         0x000016e2    0x2  Data  Gb  os_dbg.o [1]
OSDbg_ObjTypeChkEn      0x00006eb6    0x1  Data  Gb  os_dbg.o [1]
OSDbg_PendDataSize      0x00001b9a    0x2  Data  Gb  os_dbg.o [1]
OSDbg_PendListSize      0x00001df2    0x2  Data  Gb  os_dbg.o [1]
OSDbg_PendMultiEn       0x00006eb7    0x1  Data  Gb  os_dbg.o [1]
OSDbg_PendObjSize       0x00001e6e    0x2  Data  Gb  os_dbg.o [1]
OSDbg_PrioMax           0x00001f12    0x2  Data  Gb  os_dbg.o [1]
OSDbg_PrioTblSize       0x00001fea    0x2  Data  Gb  os_dbg.o [1]
OSDbg_PtrSize           0x00003a8e    0x2  Data  Gb  os_dbg.o [1]
OSDbg_Q                 0x00006b24   0x30  Data  Gb  os_dbg.o [1]
OSDbg_QDelEn            0x00006eb9    0x1  Data  Gb  os_dbg.o [1]
OSDbg_QEn               0x00006eb8    0x1  Data  Gb  os_dbg.o [1]
OSDbg_QFlushEn          0x00006eba    0x1  Data  Gb  os_dbg.o [1]
OSDbg_QPendAbortEn      0x00006ebb    0x1  Data  Gb  os_dbg.o [1]
OSDbg_QSize             0x00003fd6    0x2  Data  Gb  os_dbg.o [1]
OSDbg_RdyList           0x000050ce    0x2  Data  Gb  os_dbg.o [1]
OSDbg_RdyListSize       0x00006ea4    0x4  Data  Gb  os_dbg.o [1]
OSDbg_SchedRoundRobinEn
                        0x00006ebc    0x1  Data  Gb  os_dbg.o [1]
OSDbg_Sem               0x00006bd8   0x28  Data  Gb  os_dbg.o [1]
OSDbg_SemDelEn          0x00006ebe    0x1  Data  Gb  os_dbg.o [1]
OSDbg_SemEn             0x00006ebd    0x1  Data  Gb  os_dbg.o [1]
OSDbg_SemPendAbortEn    0x00006ebf    0x1  Data  Gb  os_dbg.o [1]
OSDbg_SemSetEn          0x00006ec0    0x1  Data  Gb  os_dbg.o [1]
OSDbg_SemSize           0x00004966    0x2  Data  Gb  os_dbg.o [1]
OSDbg_StatTaskEn        0x00006ec2    0x1  Data  Gb  os_dbg.o [1]
OSDbg_StatTaskStkChkEn  0x00006ec3    0x1  Data  Gb  os_dbg.o [1]
OSDbg_StkWidth          0x00006ec1    0x1  Data  Gb  os_dbg.o [1]
OSDbg_TCBSize           0x000067a6    0x2  Data  Gb  os_dbg.o [1]
OSDbg_TaskChangePrioEn  0x00006ec4    0x1  Data  Gb  os_dbg.o [1]
OSDbg_TaskDelEn         0x00006ec5    0x1  Data  Gb  os_dbg.o [1]
OSDbg_TaskProfileEn     0x00006ec8    0x1  Data  Gb  os_dbg.o [1]
OSDbg_TaskQEn           0x00006ec6    0x1  Data  Gb  os_dbg.o [1]
OSDbg_TaskQPendAbortEn  0x00006ec7    0x1  Data  Gb  os_dbg.o [1]
OSDbg_TaskRegTblSize    0x00006402    0x2  Data  Gb  os_dbg.o [1]
OSDbg_TaskSemPendAbortEn
                        0x00006ec9    0x1  Data  Gb  os_dbg.o [1]
OSDbg_TaskSuspendEn     0x00006eca    0x1  Data  Gb  os_dbg.o [1]
OSDbg_TickSpokeSize     0x000068d2    0x2  Data  Gb  os_dbg.o [1]
OSDbg_TimeDlyHMSMEn     0x00006ecb    0x1  Data  Gb  os_dbg.o [1]
OSDbg_TimeDlyResumeEn   0x00006ecc    0x1  Data  Gb  os_dbg.o [1]
OSDbg_Tmr               0x00006af0   0x34  Data  Gb  os_dbg.o [1]
OSDbg_TmrDelEn          0x00006ece    0x1  Data  Gb  os_dbg.o [1]
OSDbg_TmrEn             0x00006ecd    0x1  Data  Gb  os_dbg.o [1]
OSDbg_TmrSize           0x000069de    0x2  Data  Gb  os_dbg.o [1]
OSDbg_TmrSpokeSize      0x00006c8a    0x2  Data  Gb  os_dbg.o [1]
OSDbg_VersionNbr        0x00006c9a    0x2  Data  Gb  os_dbg.o [1]
OSIdleTaskCtr           0x20002f60    0x4  Data  Gb  os_var.o [1]
OSIdleTaskHook          0x00002935    0x2  Code  Gb  os_cpu_c.o [1]
OSIdleTaskTCB           0x20002b14   0x94  Data  Gb  os_var.o [1]
OSInit                  0x00001fed   0xde  Code  Gb  os_core.o [1]
OSInitHook              0x00002937   0x14  Code  Gb  os_cpu_c.o [1]
OSIntEnter              0x000020cb   0x24  Code  Gb  os_core.o [1]
OSIntExit               0x000020ef  0x104  Code  Gb  os_core.o [1]
OSIntNestingCtr         0x20002fc2    0x1  Data  Gb  os_var.o [1]
OSMemCreate             0x00003535   0x94  Code  Gb  os_mem.o [1]
OSMemDbgListPtr         0x20002f64    0x4  Data  Gb  os_var.o [1]
OSMemGet                0x000035c9   0x4a  Code  Gb  os_mem.o [1]
OSMemPut                0x00003613   0x4a  Code  Gb  os_mem.o [1]
OSMemQty                0x20002fb8    0x2  Data  Gb  os_var.o [1]
OSMsgPool               0x20002f18    0x8  Data  Gb  os_var.o [1]
OSMutexDbgListPtr       0x20002f68    0x4  Data  Gb  os_var.o [1]
OSMutexQty              0x20002fba    0x2  Data  Gb  os_var.o [1]
OSPrioCur               0x20002fc4    0x1  Data  Gb  os_var.o [1]
OSPrioHighRdy           0x20002fc5    0x1  Data  Gb  os_var.o [1]
OSPrioTbl               0x20002f54    0x4  Data  Gb  os_prio.o [1]
OSQDbgListPtr           0x20002f6c    0x4  Data  Gb  os_var.o [1]
OSQQty                  0x20002fbc    0x2  Data  Gb  os_var.o [1]
OSRdyList               0x20002618   0xf0  Data  Gb  os_var.o [1]
OSRunning               0x20002fc3    0x1  Data  Gb  os_var.o [1]
OSSched                 0x000021f3   0x76  Code  Gb  os_core.o [1]
OSSchedLock             0x00002269   0x68  Code  Gb  os_core.o [1]
OSSchedLockNestingCtr   0x20002fc6    0x1  Data  Gb  os_var.o [1]
OSSchedLockTimeBegin    0x20002f70    0x4  Data  Gb  os_var.o [1]
OSSchedLockTimeMax      0x20002f74    0x4  Data  Gb  os_var.o [1]
OSSchedLockTimeMaxCur   0x20002f78    0x4  Data  Gb  os_var.o [1]
OSSchedUnlock           0x000022d1   0x88  Code  Gb  os_core.o [1]
OSSemCreate             0x000037ad   0x60  Code  Gb  os_sem.o [1]
OSSemDbgListPtr         0x20002f7c    0x4  Data  Gb  os_var.o [1]
OSSemPend               0x0000380d  0x15a  Code  Gb  os_sem.o [1]
OSSemPost               0x00003967   0x1c  Code  Gb  os_sem.o [1]
OSSemQty                0x20002fbe    0x2  Data  Gb  os_var.o [1]
OSStart                 0x00002359   0x6a  Code  Gb  os_core.o [1]
OSStartHighRdy          0x000047f1         Code  Gb  os_cpu_a.o [1]
OSTCBCurPtr             0x20002fa4    0x4  Data  Gb  os_var.o [1]
OSTCBHighRdyPtr         0x20002fa8    0x4  Data  Gb  os_var.o [1]
OSTaskCreate            0x00002b1d  0x110  Code  Gb  os_task.o [1]
OSTaskCreateEDF         0x00004453   0x8e  Code  Gb  os_scheduler.o [1]
OSTaskCreateHook        0x0000294b    0x2  Code  Gb  os_cpu_c.o [1]
OSTaskCtxSwCtr          0x20002f80    0x4  Data  Gb  os_var.o [1]
OSTaskDbgListPtr        0x20002f84    0x4  Data  Gb  os_var.o [1]
OSTaskDel               0x00002c2d  0x102  Code  Gb  os_task.o [1]
OSTaskDelEDF            0x000044e1   0xf8  Code  Gb  os_scheduler.o [1]
OSTaskDelHook           0x0000294d    0x2  Code  Gb  os_cpu_c.o [1]
OSTaskQty               0x20002fc0    0x2  Data  Gb  os_var.o [1]
OSTaskReturnHook        0x0000294f    0x2  Code  Gb  os_cpu_c.o [1]
OSTaskSemPend           0x00002d2f  0x146  Code  Gb  os_task.o [1]
OSTaskSemPost           0x00002e75   0x1c  Code  Gb  os_task.o [1]
OSTaskStkInit           0x00002951   0x80  Code  Gb  os_cpu_c.o [1]
OSTaskSwHook            0x000029d1   0x3e  Code  Gb  os_cpu_c.o [1]
OSTickCtr               0x20002f88    0x4  Data  Gb  os_var.o [1]
OSTickTaskTCB           0x20002ba8   0x94  Data  Gb  os_var.o [1]
OSTickTaskTimeMax       0x20002f8c    0x4  Data  Gb  os_var.o [1]
OSTimeTick              0x0000489d   0x36  Code  Gb  os_time.o [1]
OSTimeTickHook          0x00002a0f    0x2  Code  Gb  os_cpu_c.o [1]
OSTmrDbgListPtr         0x20002f90    0x4  Data  Gb  os_var.o [1]
OSTmrTaskTCB            0x20002c3c   0x94  Data  Gb  os_var.o [1]
OSTmrTaskTimeMax        0x20002f94    0x4  Data  Gb  os_var.o [1]
OSTmrTickCtr            0x20002f98    0x4  Data  Gb  os_var.o [1]
OSTmrUpdateCnt          0x20002f9c    0x4  Data  Gb  os_var.o [1]
OSTmrUpdateCtr          0x20002fa0    0x4  Data  Gb  os_var.o [1]
OS_CPU_ExceptStkBase    0x20002f50    0x4  Data  Gb  os_cpu_c.o [1]
OS_CPU_PendSVHandler    0x0000480f         Code  Gb  os_cpu_a.o [1]
OS_CPU_SysTickHandler   0x00002a11   0x2c  Code  Gb  os_cpu_c.o [1]
OS_CPU_SysTickInit      0x00002a3d   0x2c  Code  Gb  os_cpu_c.o [1]
OS_Dbg_Init             0x00003d79  0x188  Code  Gb  os_dbg.o [1]
OS_IdleTask             0x000023c3   0x2c  Code  Gb  os_core.o [1]
OS_IdleTaskInit         0x000023ef   0x50  Code  Gb  os_core.o [1]
OS_MemDbgListAdd        0x0000365d   0x24  Code  Gb  os_mem.o [1]
OS_MemInit              0x00003681   0x12  Code  Gb  os_mem.o [1]
OS_MsgPoolCreate        0x000036a5   0x40  Code  Gb  os_msg.o [1]
OS_MsgPoolInit          0x000036e5   0x2c  Code  Gb  os_msg.o [1]
OS_MsgQFreeAll          0x00003711   0x44  Code  Gb  os_msg.o [1]
OS_MsgQInit             0x00003755   0x14  Code  Gb  os_msg.o [1]
OS_MutexInit            0x00003775   0x12  Code  Gb  os_mutex.o [1]
OS_Pend                 0x0000243f   0x6c  Code  Gb  os_core.o [1]
OS_PendDataInit         0x000024ab   0x38  Code  Gb  os_core.o [1]
OS_PendDbgNameAdd       0x000024e3   0x42  Code  Gb  os_core.o [1]
OS_PendDbgNameRemove    0x00002525   0x1e  Code  Gb  os_core.o [1]
OS_PendListInit         0x00002543    0xe  Code  Gb  os_core.o [1]
OS_PendListInsertPrio   0x00002551   0x70  Code  Gb  os_core.o [1]
OS_PendListRemove       0x000025c1   0x28  Code  Gb  os_core.o [1]
OS_PendListRemove1      0x000025e9   0x48  Code  Gb  os_core.o [1]
OS_Post                 0x00002631   0xc0  Code  Gb  os_core.o [1]
OS_Post1                0x000026f1   0x26  Code  Gb  os_core.o [1]
OS_PrioGetHighest       0x00002aa9   0x20  Code  Gb  os_prio.o [1]
OS_PrioInit             0x00002a95   0x14  Code  Gb  os_prio.o [1]
OS_PrioInsert           0x00002ac9   0x26  Code  Gb  os_prio.o [1]
OS_PrioRemove           0x00002aef   0x28  Code  Gb  os_prio.o [1]
OS_QInit                0x00003791   0x12  Code  Gb  os_q.o [1]
OS_RdyListInit          0x00002717   0x26  Code  Gb  os_core.o [1]
OS_RdyListInsert        0x00002745   0x28  Code  Gb  os_core.o [1]
OS_RdyListInsertHead    0x0000276d   0x3a  Code  Gb  os_core.o [1]
OS_RdyListInsertTail    0x000027a7   0x38  Code  Gb  os_core.o [1]
OS_RdyListRemove        0x000027df   0x5c  Code  Gb  os_core.o [1]
OS_RdyListRemoveEDF     0x000045d9   0x5c  Code  Gb  os_scheduler.o [1]
OS_SchedLockTimeMeasStart
                        0x0000283b   0x14  Code  Gb  os_core.o [1]
OS_SchedLockTimeMeasStop
                        0x0000284f   0x2e  Code  Gb  os_core.o [1]
OS_SemDbgListAdd        0x00003983   0x28  Code  Gb  os_sem.o [1]
OS_SemInit              0x000039ab   0x12  Code  Gb  os_sem.o [1]
OS_SemPost              0x000039d9   0xb6  Code  Gb  os_sem.o [1]
OS_TaskBlock            0x000028e1   0x3a  Code  Gb  os_core.o [1]
OS_TaskDbgListAdd       0x00002e91   0x2c  Code  Gb  os_task.o [1]
OS_TaskDbgListRemove    0x00002ebd   0x4a  Code  Gb  os_task.o [1]
OS_TaskInit             0x00002f07   0x18  Code  Gb  os_task.o [1]
OS_TaskInitTCB          0x00002f1f   0xac  Code  Gb  os_task.o [1]
OS_TaskRdy              0x0000291b   0x1a  Code  Gb  os_core.o [1]
OS_TaskReturn           0x00002fcb   0x14  Code  Gb  os_task.o [1]
OS_TaskSemPost          0x00002fdf   0xd4  Code  Gb  os_task.o [1]
OS_TickListInit         0x000031c9   0x2c  Code  Gb  os_tick.o [1]
OS_TickListInsert       0x000031f5  0x11c  Code  Gb  os_tick.o [1]
OS_TickListRemove       0x00003311   0x42  Code  Gb  os_tick.o [1]
OS_TickListUpdate       0x00003353  0x19c  Code  Gb  os_tick.o [1]
OS_TickTask             0x000030dd   0x68  Code  Gb  os_tick.o [1]
OS_TickTaskInit         0x00003145   0x84  Code  Gb  os_tick.o [1]
OS_TmrInit              0x00003a91   0xdc  Code  Gb  os_tmr.o [1]
OS_TmrLink              0x00003b6d   0xd0  Code  Gb  os_tmr.o [1]
OS_TmrTask              0x00003c8d   0xac  Code  Gb  os_tmr.o [1]
OS_TmrUnlink            0x00003c3d   0x4c  Code  Gb  os_tmr.o [1]
PWMGenConfigure         0x00005b95   0x3c  Code  Gb  pwm.o [1]
PWMGenEnable            0x00005bf1    0xe  Code  Gb  pwm.o [1]
PWMGenPeriodSet         0x00005bd1   0x20  Code  Gb  pwm.o [1]
PWMOutputInvert         0x00005c5b   0x2a  Code  Gb  pwm.o [1]
PWMOutputState          0x00005c31   0x2a  Code  Gb  pwm.o [1]
PWMPulseWidthSet        0x00005bff   0x32  Code  Gb  pwm.o [1]
Region$$Table$$Base     0x00006c28          --   Gb  - Linker created -
Region$$Table$$Limit    0x00006c48          --   Gb  - Linker created -
SysCtlClockGet          0x00004c03  0x200  Code  Gb  sysctl.o [1]
SysCtlClockSet          0x00004aa1  0x162  Code  Gb  sysctl.o [1]
SysCtlDelay             0x00004a99    0x8  Code  Gb  sysctl.o [1]
SysCtlPWMClockSet       0x00004e03   0x10  Code  Gb  sysctl.o [1]
SysCtlPeripheralEnable  0x00004a71   0x26  Code  Gb  sysctl.o [1]
SysCtlPeripheralReset   0x00004a11   0x60  Code  Gb  sysctl.o [1]
_Close_all              0x00006931   0x58  Code  Gb  xcloseall.o [3]
_EncodingSb_Mbtowc      0x00001e9f   0x30  Code  Gb  xencoding_sb.o [3]
_EncodingSb_Mbtowc::initial
                        0x00001edc    0x8  Data  Lc  xencoding_sb.o [3]
_EncodingSb_Wctomb      0x00001e85   0x1a  Code  Gb  xencoding_sb.o [3]
_EncodingSb_Wctomb::initial
                        0x00001ed4    0x8  Data  Lc  xencoding_sb.o [3]
_Files                  0x200000c4   0x20  Data  Gb  xfiles.o [3]
_Fofree                 0x000067a9   0x78  Code  Gb  xfofind.o [3]
_Fspos                  0x0000632d   0xd6  Code  Gb  xfspos.o [3]
_Fwprep                 0x000066cd   0xb8  Code  Gb  xfwprep.o [3]
_GenldFull              0x00001019  0x254  Code  Lc  xprintffull.o [3]
_IsdstStr               0x20000178    0x4  Data  Gb  setlocale.o [3]
_LdtobFull              0x00000c19  0x3fa  Code  Lc  xprintffull.o [3]
_LitobFull              0x00000b0d  0x10a  Code  Lc  xprintffull.o [3]
_LocaleEncoding         0x00001e71    0xe  Code  Gb  setlocale.o [3]
_LocaleReturnString     0x20000198   0x50  Data  Lc  setlocale.o [3]
_Locale_Profile         0x2000017c   0x1c  Data  Gb  setlocale.o [3]
_Locale_aeabi_lconv     0x2000013c   0x38  Data  Gb  localeconv.o [3]
_Locale_lconv           0x200000ec   0x50  Data  Gb  localeconv.o [3]
_Mbtowc                 0x000012b7   0x20  Code  Gb  xmbtowc.o [3]
_Nnl                    0x000064b5    0xc  Code  Gb  xfgpos.o [3]
_PrintfFull             0x0000011d  0x660  Code  Gb  xprintffull.o [3]
_Prout                  0x00006cc9   0x16  Code  Gb  xprout.o [3]
_PutcharsFull           0x0000126d   0x2e  Code  Lc  xprintffull.o [3]
_PutstrFull             0x00000801  0x306  Code  Lc  xprintffull.o [3]
_TzoneStr               0x20000174    0x4  Data  Gb  setlocale.o [3]
_Wctomb                 0x0000143d   0x1a  Code  Gb  xwctomb.o [3]
__aeabi_cdcmple         0x00001685         Code  Gb  DblCmpLe.o [4]
__aeabi_cdrcmple        0x000016b5         Code  Gb  DblCmpGe.o [4]
__aeabi_d2iz            0x000017f1         Code  Gb  DblToI32.o [4]
__aeabi_d2uiz           0x0000181d         Code  Gb  DblToI32.o [4]
__aeabi_ddiv            0x00001b9d         Code  Gb  DblDiv.o [4]
__aeabi_dmul            0x000019f9         Code  Gb  DblMul.o [4]
__aeabi_dsub            0x00001879         Code  Gb  DblSub.o [4]
__aeabi_errno_addr      0x0000650d    0x6  Code  Gb  errno.o [3]
__aeabi_i2d             0x00001849         Code  Gb  I32ToDbl.o [4]
__aeabi_ldiv0           0x00001f11         Code  Gb  I64DivZer.o [5]
__aeabi_ui2d            0x0000185d         Code  Gb  I32ToDbl.o [4]
__aeabi_uldivmod        0x00001551         Code  Gb  I64DivMod.o [5]
__cexit_closeall        0x00006c8f         Code  Gb  cexit.o [5]
__close                 0x000068a3   0x1a  Code  Gb  close.o [6]
__cmain                 0x00006c69         Code  Gb  cmain.o [5]
__cstart_closeall       0x00006ed0         Data  Gb  cstart_closeall.o [5]
__data_Aldata           0x20002f20    0x8  Data  Gb  xxmemxmalloc.o [3]
__data_GetMemChunk      0x00001ee5   0x2c  Code  Gb  xgetmemchunk.o [3]
__data_GetMemChunk::start
                        0x20002fb0    0x4  Data  Lc  xgetmemchunk.o [3]
__dwrite                0x000065f9   0x1e  Code  Gb  dwrite.o [6]
__exit                  0x00006c9d   0x14  Code  Gb  exit.o [6]
__iar_Dnorm             0x0000163f   0x44  Code  Gb  xdnorm.o [4]
__iar_Dscale            0x000016e5  0x10c  Code  Gb  xdscale.o [4]
__iar_Errno             0x200001e8    0x4  Data  Gb  errno.o [3]
__iar_Locale_lconv_init
                        0x00001df5   0x3a  Code  Gb  localeconv.o [3]
__iar_Lockfilelock      0x00006519    0x2  Code  Gb  xsyslock_nop.o [3]
__iar_Mbcurmax          0x00001381    0xa  Code  Gb  xmbcurmax.o [3]
__iar_Memchr            0x00001329         Code  Gb  memchr.o [5]
__iar_Stderr            0x20000084   0x40  Data  Gb  xfiles.o [3]
__iar_Stdin             0x20000004   0x40  Data  Gb  xfiles.o [3]
__iar_Stdout            0x20000044   0x40  Data  Gb  xfiles.o [3]
__iar_Strchr            0x000012d9         Code  Gb  strchr.o [5]
__iar_Unlockfilelock    0x0000651b    0x2  Code  Gb  xsyslock_nop.o [3]
__iar_close_ttio        0x00006659   0x2e  Code  Gb  iarttio.o [6]
__iar_d2uiz             0x00001829         Code  Gb  DblToI32.o [4]
__iar_dadd              0x00001f15         Code  Gb  DblAdd.o [4]
__iar_data_init3        0x00006c01   0x28  Code  Gb  data_init.o [5]
__iar_dlib_perthread_access
                        0x00001fe9    0x2  Code  Gb  xtls.o [3]
__iar_dsub              0x0000188d         Code  Gb  DblSub.o [4]
__iar_dsubStart         0x0000189f         Code  Gb  DblSub.o [4]
__iar_get_ttio          0x00006689   0x38  Code  Gb  iarttio.o [6]
__iar_lookup_ttioh      0x000066c5    0x8  Code  Gb  XShttio.o [3]
__iar_packbits_init_single3
                        0x00006ab9   0x38  Code  Gb  packbits_init_single.o [5]
__iar_program_start     0x00006e19         Code  Gb  cstartup_M.o [5]
__iar_sh_Discard        0x0000652d   0x3e  Code  Gb  XShHandles.o [3]
__iar_sh_Move           0x00006571   0x46  Code  Gb  XShHandles.o [3]
__iar_sh_Pos            0x000065b7   0x3e  Code  Gb  XShHandles.o [3]
__iar_sh_stdout         0x00006617   0x20  Code  Gb  iarwstd.o [6]
__iar_sh_write          0x00006637   0x22  Code  Gb  iarwrite.o [6]
__iar_ttio_handles      0x200000e4    0x8  Data  Lc  XShttio.o [3]
__iar_ui2d              0x00001861         Code  Gb  I32ToDbl.o [4]
__iar_unaligned___aeabi_memcpy
                        0x00001459         Code  Gb  ABImemcpy_unaligned.o [5]
__iar_unaligned___aeabi_memcpy4
                        0x00001479         Code  Gb  ABImemcpy_unaligned.o [5]
__iar_unaligned___aeabi_memcpy8
                        0x00001479         Code  Gb  ABImemcpy_unaligned.o [5]
__iar_zero_init3        0x00006a79   0x40  Code  Gb  zero_init3.o [5]
__low_level_init        0x00006c83    0x4  Code  Gb  low_level_init.o [3]
__lseek                 0x000064c1   0x4c  Code  Gb  lseek.o [6]
__vector_table          0x00000000  0x11c  Data  Gb  app_vect.o [1]
__write                 0x0000651d   0x10  Code  Gb  write.o [6]
_call_main              0x00006c75         Code  Gb  cmain.o [5]
_exit                   0x00006c8d         Code  Gb  cexit.o [5]
_main                   0x00006c7f         Code  Gb  cmain.o [5]
counter                 0x20002f5c    0x4  Data  Gb  os_tick.o [1]
div                     0x00001e61    0xe  Code  Gb  div.o [3]
ebuf                    0x20002e20   0x50  Data  Lc  xfiles.o [3]
exit                    0x00006c87    0x4  Code  Gb  exit.o [3]
fclose                  0x00006829   0x7a  Code  Gb  fclose.o [3]
fflush                  0x0000647b   0x34  Code  Gb  fflush.o [3]
fflushOne               0x00006405   0x76  Code  Lc  fflush.o [3]
fputc                   0x00006989   0x56  Code  Gb  fputc.o [3]
free                    0x000014d1   0x7a  Code  Gb  xxmemxfree.o [3]
fseek                   0x00006785   0x22  Code  Gb  fseek.o [3]
g_pucRITInit            0x000069e0   0x50  Data  Lc  bsp_display.o [1]
g_pucRow1               0x00006e24    0x8  Data  Lc  bsp_display.o [1]
g_pucRow2               0x00006e2c    0x8  Data  Lc  bsp_display.o [1]
g_pulGPIOBaseAddrs      0x00006a30   0x48  Data  Lc  gpio.o [1]
g_pulRCGCRegs           0x00006e00    0xc  Data  Lc  sysctl.o [1]
g_pulSRCRRegs           0x00006df4    0xc  Data  Lc  sysctl.o [1]
g_pulXtals              0x000068d4   0x5c  Data  Lc  sysctl.o [1]
g_ulDelay               0x20002f34    0x4  Data  Lc  bsp_display.o [1]
getMin                  0x0000632b    0x2  Code  Gb  app.o [1]
heapify                 0x000062c5   0x66  Code  Gb  app.o [1]
insert                  0x0000624b   0x70  Code  Gb  app.o [1]
localeconv              0x00001e2f   0x16  Code  Gb  localeconv.o [3]
main                    0x00005c85   0x56  Code  Gb  app.o [1]
malloc                  0x0000138d   0xac  Code  Gb  xxmemxmalloc.o [3]
max                     0x20000000    0x4  Data  Gb  app.o [1]
memchr                  0x00001329         Code  Gb  memchr.o [5]
minDeadline             0x00004439   0x1a  Code  Gb  os_scheduler.o [1]
obuf                    0x20002e70   0x50  Data  Lc  xfiles.o [3]
printf                  0x000048e5   0x24  Code  Gb  printf.o [3]
putchar                 0x00006ce1    0xc  Code  Gb  putchar.o [3]
remove                  0x000068bd   0x16  Code  Gb  remove.o [6]
sFileInfo               0x20002cd0   0x80  Data  Lc  XShHandles.o [3]
size                    0x20002f2c    0x4  Data  Gb  app.o [1]
strchr                  0x000012d9         Code  Gb  strchr.o [5]
strlen                  0x000012f1         Code  Gb  strlen.o [5]
swap                    0x00006221   0x2a  Code  Gb  app.o [1]
t                       0x20002f28    0x4  Data  Gb  app.o [1]
update                  0x000062bb    0xa  Code  Gb  app.o [1]


[1] = C:\Users\TANKX\Desktop\new_ver2\CE4053-ce4053_source_code-c5208c241304\ce4053\Micrium\Software\EvalBoards\TI\LM3S9B92-EVALBOT\IAR\uCOS-III-CE4053_PG\Debug\Obj
[2] = command line
[3] = dl7M_tlf.a
[4] = m7M_tl.a
[5] = rt7M_tl.a
[6] = shb_l.a

  26 971 bytes of readonly  code memory
   1 535 bytes of readonly  data memory
  12 227 bytes of readwrite data memory

Errors: none
Warnings: none
